:020000040800F2
:1000000000500020190A0008610A0008610A00086F
:10001000610A0008610A0008610A00080000000087
:10002000000000000000000000000000610A00085D
:10003000610A000800000000610A0008C901000808
:10004000610A0008610A0008610A0008610A0008E4
:10005000610A0008610A0008610A0008610A0008D4
:10006000610A0008610A0008610A0008610A0008C4
:10007000610A0008610A0008610A0008610A0008B4
:10008000610A0008610A0008610A0008610A0008A4
:10009000610A0008610A0008610A0008610A000894
:1000A000610A0008610A0008610A0008610A000884
:1000B000610A0008610A0008610A0008610A000874
:1000C000610A0008610A0008610A0008610A000864
:1000D000610A0008610A0008610A0008610A000854
:1000E000610A0008610A0008610A000800000000B7
:1000F0000000000000000000000000000000000000
:0C01000000000000000000005FF808F1A3
:10010C0010B5054C237833B9044B13B10448AFF345
:10011C0000800123237010BD680400200000000043
:10012C00380D000808B5034B1BB103490348AFF366
:10013C00008008BD000000006C040020380D000891
:10014C00A3F5803A704700BF174B002B08BF134B29
:10015C009D46FFF7F5FF00218B460F461348144AC6
:10016C00121A00F0ADFC0E4B002B00D098470D4B33
:10017C00002B00D098470020002104000D000D48F2
:10018C00002802D00C4800F059FD00F075FC20004E
:10019C00290000F0FFFB00F05FFC00BF000008002E
:1001AC0000000000000000000000000068040020B7
:1001BC00AC040020490C0008550C0008034B1A68CD
:1001CC00002A02DD1A68013A1A6070478404002084
:1001DC00024A10601368002BFCD170478404002085
:1001EC004FF41F000C4B0D4A196841F001011960C6
:1001FC0059680A405A601A6822F0847222F48032DC
:10020C001A601A6822F480221A605A6822F4FE02DC
:10021C005A609860704700BF001002400000FFF861
:10022C000C4BB0F5803F1A6822F480321A601A68C1
:10023C0022F480221A6008D0B0F5802F04D11A68FD
:10024C0042F4A0221A60704770471A6842F4803258
:10025C001A60704700100240002382B009490193D4
:10026C0000E04AB90A68019B02F4003201330193A1
:10027C00019BB3F5A06FF4D1024B1868C0F340405A
:10028C0002B0704700100240034A136823F0F803D1
:10029C0043EAC0031360704700100240014B186022
:1002AC00704700BF00004242034A536823F47C139A
:1002BC000B4303435360704700100240014B186618
:1002CC00704700BF00004242034A536823F0030307
:1002DC0003435360704700BF00100240024B586844
:1002EC0000F00C00704700BF00100240034A536836
:1002FC0023F0F00303435360704700BF001002402B
:10030C00034A536823F4E06303435360704700BF10
:10031C0000100240034A536823F4605343EAC003BD
:10032C005360704700100240044A537A11B11843CD
:10033C005072704723EA0000507270470010024060
:10034C00014BC3F8D800704700004242034A53687F
:10035C0023F4404303435360704700BF0010024036
:10036C000022084B012883F8202083F8202006D097
:10037C00042803D1052283F820207047704783F8A6
:10038C002000704700100240014BC3F880047047F6
:10039C0000004242024A136A03431362704700BFD3
:1003AC0000100240014BC3F83C047047000042426D
:1003BC001F4A10B4536803F00C03082B22D01D4ABB
:1003CC00134602601A491C4A4C68C4F30314145DAA
:1003DC00E34043604C68C4F30224145D23FA04F434
:1003EC0084604C68C4F3C22C12F80C40E340C36028
:1003FC00496810BCC1F381310A44127CB3FBF2F39F
:10040C000361704753685168C3F38343C90303F115
:10041C00020307D55268920304D4064A02FB03F385
:10042C000360CFE7054A02FB03F30360CAE700BF92
:10043C000010024000127A000400002000093D0068
:10044C00044A536911B118435061704723EA000004
:10045C005061704700100240044A936911B118436F
:10046C009061704723EA00009061704700100240D1
:10047C00044AD36911B11843D061704723EA0000D4
:10048C00D061704700100240044AD36811B1184380
:10049C00D060704723EA0000D06070470010024023
:1004AC00044A136911B118431061704723EA000024
:1004BC001061704700100240014BC3F840047047B4
:1004CC0000004242014BD864704700BF000042421A
:1004DC00014BD871704700BF001002404309012B3B
:1004EC000BD0022B094B00F01F000CBF1B6A5B6A80
:1004FC0023FA00F000F001007047044B00F01F00DD
:10050C001B6823FA00F000F0010070470010024055
:10051C00024A536A43F080735362704700100240E2
:10052C00034B9B68184214BF01200020704700BF8A
:10053C0000100240014B9872704700BF001002403F
:10054C0008B52F4B98421CD02E4B984223D02E4BE3
:10055C0098422AD02D4B984209D02D4B98422ED040
:10056C002C4B984235D02C4B98423CD008BD0121E5
:10057C002020FFF789FFBDE8084000212020FFF76D
:10058C0083BF01210420FFF77FFFBDE80840002155
:10059C000420FFF779BF01210820FFF775FFBDE8A4
:1005AC00084000210820FFF76FBF01211020FFF742
:1005BC006BFFBDE8084000211020FFF765BF01214B
:1005CC004020FFF761FFBDE8084000214020FFF705
:1005DC005BBF01218020FFF757FFBDE808400021D9
:1005EC008020FFF751BF01214FF48070FFF74CFFC3
:1005FC00BDE8084000214FF48070FFF745BF00BFF5
:10060C0000080140000C01400010014000140140A2
:10061C0000180140001C014000200140012108B5D8
:10062C000846FFF731FFBDE8084000210120FFF725
:10063C002BBF00BF2DE9F04191F803C01CF0100F47
:10064C0018BF8B7809880CF00F0518BF1D43CBB26F
:10065C001BB3002301264FF00F08046802E001339E
:10066C00082B19D006FA03F232EA0107F7D14FEA48
:10067C00830E08FA0EF724EA070405FA0EFEBCF105
:10068C00280F4EEA040432D0BCF1480F03F10103E9
:10069C0008BF0261082BE5D10460FF2925D900238E
:1006AC0001264FF00F08446802E00133082B1BD0E1
:1006BC0003F1080206FA02F232EA0107F5D14FEA19
:1006CC00830E08FA0EF724EA070405FA0EFEBCF1B5
:1006DC00280F4EEA04040CD0BCF1480F03F10103BF
:1006EC0008BF0261082BE3D14460BDE8F081426190
:1006FC00B5E74261D9E700BF4FF6FF7240F2024303
:10070C0002804380704700BF8368194214BF0120E8
:10071C0000207047806880B2704700BFC3681942E0
:10072C0014BF012000207047C06880B2704700BF22
:10073C0001617047416170470AB1016170474161C5
:10074C00704700BFC160704741F4803383618161A1
:10075C0083618369836970474FF6807C044A136810
:10076C0003EA0C030B4343EA00131360704700BF0A
:10077C0000000140014BD861704700BF00002042CF
:10078C0000281A4B00F44012B4BFDB695B68B2F569
:10079C00401F10B41FFA80FC1FD0C20214D50322D4
:1007AC00C0F30344A24023EA020343F0706321B177
:1007BC00420D12010CFA02F213430C4A002810BC31
:1007CC00B4BFD36153607047420D12010CFA02F2B0
:1007DC0023EA020343F07063E9E7044C23F07063EF
:1007EC00626822F070626260E1E700BF00000140C5
:1007FC004FF00F0C01F0FC0303F1804303F5803341
:10080C0001F003019A6889000CFA01FC22EA0C023F
:10081C009A609A688840104398607047014BC3F8FF
:10082C00DC00704700002042A80D000800000020EA
:10083C005C04002068040020AC04002010B40020EC
:10084C004FF41F04394A3A4B116883B041F001014F
:10085C00116051680B405360136823F0847323F4C8
:10086C0080331360136823F480231360536823F4DC
:10087C00FE035360946000900190136843F480333E
:10088C00136003E0009BB3F5A06F09D0136803F469
:10089C0000330193009B01330093019B002BF1D09B
:1008AC00224B1B6813F4003318BF01230193019BE7
:1008BC00012B06D04FF000621E4B9A6003B010BCA7
:1008CC0070471D4A194B116841F0100111601168F5
:1008DC0021F007011160116841F0020111605A68A2
:1008EC005A605A685A605A6842F480625A605A6870
:1008FC0022F47C125A605A6842F4E8125A601A6860
:10090C0042F080721A601A689201FCD55968074A45
:10091C0021F003015960596841F002015960536894
:10092C0003F00C03082BFAD1C4E700BF00100240FF
:10093C000000FFF800ED00E000200240114A53686F
:10094C0003F00C03082B09D00F4B0E4A0F495268C9
:10095C00C2F303128A5CD3400B6170475368516831
:10096C00C3F38343C90303F1020306D55268920310
:10097C0003D4054A02FB03F3E7E7054A02FB03F342
:10098C00E3E700BF0010024000127A0018000020BC
:10099C0000093D0000B583B072B64FF0E023002291
:1009AC00072117481A6158619A61196162B6154896
:1009BC00FFF7C6FD01211020FFF74EFD4FF400524A
:1009CC0041F202030F4801A9012605460E4CADF871
:1009DC000420ADF80630FFF72DFE4FF400512846E9
:1009EC00FFF7A6FE26602368002BFCD14FF40051C4
:1009FC002846FFF79FFE26602368002BFCD1ECE70E
:100A0C00FFDC6D000010014084040020002103E095
:100A1C000B4B5B58435004310A480B4B42189A421B
:100A2C00F6D30A4A02E0002342F8043B084B9A42F0
:100A3C00F9D3FFF703FF00F01FF8FFF7ABFF704788
:100A4C00A80D0008000000205C04002068040020B1
:100A5C00AC040020FEE7000008B50021044600F0BD
:100A6C008BF8044B1868C36B03B19847204600F011
:100A7C005BF900BF9C0D000870B50D4E0D4D761B3B
:100A8C00B61006D0002455F8043B01349847A64212
:100A9C00F9D1094E094D00F04BF9761BB61006D072
:100AAC00002455F8043B01349847A642F9D170BD97
:100ABC00000000000000000000000000000000002A
:100ACC00830730B548D0541E002A3FD00346CAB223
:100ADC0001E0013C3AD303F8012B9D07F9D1032C1B
:100AEC002DD9CDB245EA05250F2C45EA054536D959
:100AFC00A4F1100222F00F0C03F1200EE6444FEA91
:100B0C00121C03F1100242E9045542E9025510325D
:100B1C007245F8D10CF1010214F00C0F03EB021228
:100B2C0004F00F0C13D0ACF1040323F003030433D3
:100B3C00134442F8045B9342FBD10CF003042CB138
:100B4C00CAB21C4403F8012B9C42FBD130BD644655
:100B5C001346002CF4D1F9E703461446BFE71A46B6
:100B6C00A446E0E7024B13B1024800F067B87047A7
:100B7C0000000000550C00082DE9F04F83462D4B6A
:100B8C0083B018680F46CDF804B000F07DF82A4BFE
:100B9C00D3F80080D8F848619EB14FF001094FF0AE
:100BAC00000A7468651E0CD4013406EB84047FB112
:100BBC00D4F80031BB420BD0013D6B1CA4F10404F2
:100BCC00F5D11C4B186803B0BDE8F04F00F064B8C9
:100BDC0073682268013BAB420CBF7560C4F800A07F
:100BEC00002AE9D0D6F8880109FA05F10142D6F8B5
:100BFC0004B00BD1904772685A4512D1D8F84831DD
:100C0C00B342D9D01E46002ECBD1DAE7D6F88C01F0
:100C1C0001420BD10198D4F88010904772685A4564
:100C2C00ECD0D8F84861002EBBD1CAE7D4F88000CC
:100C3C009047E0E7580400209C0D00080023014673
:100C4C001A46184600F02AB838B5084B084D5B1BFD
:100C5C009C1007D0043B1D44013C55F804399847BF
:100C6C00002CF9D1BDE8384000F068B80000000055
:100C7C0000000000704700BF704700BF704700BF06
:100C8C00704700BF704700BF704700BF012070471E
:100C9C0001207047704700BF704700BF2DE9F04737
:100CAC00DFF87CA00646DAF8000098460F4691461D
:100CBC00FFF7EAFF1B4B1B68D3F8484124B3656868
:100CCC001F2D26DC5EB96B1C0235DAF80000636060
:100CDC0044F82570FFF7E0FF0020BDE8F087012302
:100CEC0004EB8501C1F88890D4F88821AB401A43F5
:100CFC00022EC4F88821C1F80881E4D1D4F88C21E3
:100D0C001343C4F88C31DEE703F5A674C3F84841ED
:100D1C00D5E7DAF80000FFF7BFFF4FF0FF30DCE754
:100D2C00580400209C0D0008FEE700BF00000000E6
:100D3C00F8B500BFF8BC08BC9E467047F8B500BFBC
:080D4C00F8BC08BC9E4670478C
:100D54003B3E0B3E103E253E333E033E063E143ED4
:100D64000E3E0D3E243E123E273E023E183E093EF4
:100D74000A3E00003B3E0B3E103E253E333E033E02
:100D8400063E143E0E3E0D3E243E123E273E023EDB
:0C0D9400183E093E0A3E0000300000201E
:080DA000ACF3FF7F010000002D
:100DA8000000000000000000010203040102030427
:100DB80006070809020406080000000000000000F9
:100DC800010203040607080900A24A0430000020B3
:100DD800000000001C03002084030020EC03002016
:100DE80000000000000000000000000000000000FB
:100DF80000000000000000000000000000000000EB
:100E080000000000000000000000000000000000DA
:100E180000000000000000000000000000000000CA
:100E280000000000000000000000000000000000BA
:100E380000000000000000000000000000000000AA
:100E4800000000000000000000000000000000009A
:100E5800000000000000000000000000000000008A
:100E6800000000000000000000000000000000007A
:100E78000000000000000000010000000000000069
:100E88000E33CDAB34126DE6ECDE05000B0000002E
:100E9800000000000000000000000000000000004A
:100EA800000000000000000000000000000000003A
:100EB800000000000000000000000000000000002A
:100EC800000000000000000000000000000000001A
:0C11F80000000000000000009004002037
:0412040031010008AC
:041208000D010008CC
:04120C00710B00085A
:0400000508000A19CC
:00000001FF
