:020000040800F2
:10000000005000201118000859180008591800085D
:100010005918000859180008591800080000000075
:100020000000000000000000000000005918000857
:100030005918000800000000591800085918000855
:1000400059180008591800085918000859180008CC
:1000500059180008591800085918000859180008BC
:1000600059180008591800085918000859180008AC
:10007000591800085918000859180008591800089C
:10008000591800085918000859180008591800088C
:10009000591800085918000859180008591800087C
:1000A000591800085918000859180008591800086C
:1000B000591800085918000859180008591800085C
:1000C0005918000859180008591800082D0500088B
:1000D000591800085918000859180008591800083C
:1000E00059180008591800085918000800000000A5
:1000F0000000000000000000000000000000000000
:0C01000000000000000000005FF808F1A3
:10010C0010B5054C237833B9044B13B10448AFF345
:10011C0000800123237010BD70040020000000003B
:10012C00301B000808B5034B1BB103490348AFF360
:10013C00008008BD0000000074040020301B000883
:10014C00A3F5803A704700BF174B002B08BF134B29
:10015C009D46FFF7F5FF00218B460F461348144AC6
:10016C00121A01F0A9FB0E4B002B00D098470D4B37
:10017C00002B00D098470020002104000D000D48F2
:10018C00002802D00C4801F055FC01F071FB200056
:10019C00290001F0DDFA01F05BFB00BF0000080054
:1001AC0000000000000000000000000070040020AF
:1001BC00B8040020411A00084D1A000838B505464D
:1001CC000C461348102100F08BFD124845F020011D
:1001DC0001F000F90F4801F0FFF802210D4801F081
:1001EC0057F90028F9D021460A4801F0F3F8094CD8
:1001FC008021204601F04CF90028F9D1BDE83840A7
:10020C0000F18040102100F5843000F067BD00BF84
:10021C00000801400030014038B505460C4627481F
:10022C00102100F05DFD2648294601F0D3F84FF06F
:10023C00E022002313209361136943F0010313613F
:10024C001369D903FCD50138FAD113691C4823F082
:10025C000103136101F0C0F80221194801F018F9EB
:10026C000028F9D00021164801F0B4F801211448F7
:10027C0001F00EF90028F9D0114801F0ADF8104D3D
:10028C0020708021284601F003F904460028F8D19B
:10029C0010210A4800F022FD4FF0E0221321946156
:1002AC00136943F0010313611369DB03FCD50139B6
:1002BC00FAD1136923F00103136138BD0008014022
:1002CC0000300140002370B516460C4682B00DF18B
:1002DC0007018DF807300546FFF79EFF4FF0E0222F
:1002EC0000219DF80730012E0CBF2343A3430924A2
:1002FC008DF807309161136943F0010313611369A1
:10030C00D903FCD5013CFAD11369102123F0010368
:10031C001A48136100F0E4FC194845F0200101F083
:10032C0059F8174801F058F80221154801F0B0F8B7
:10033C000028F9D09DF80710114801F04BF8104D2A
:10034C008021284601F0A4F804460028F8D1102199
:10035C000A4800F0C3FC4FF0E022132194611369AA
:10036C0043F0010313611369DB03FCD50139FAD1A6
:10037C00136923F00103136102B070BD0008014042
:10038C000030014070B504461C4E0D461C4810212F
:10039C0000F0A6FC44F02001304601F01BF830467A
:1003AC0001F01AF86C1D0221144801F071F80028B4
:1003BC00F9D014F8011D304601F00CF8AC42F2D122
:1003CC000E4D8021284601F063F804460028F8D130
:1003DC0010210B4800F082FC4FF0E0223121946197
:1003EC00136943F0010313611369DB03FCD5013975
:1003FC00FAD1136923F00103136170BD0030014081
:10040C000008014070B504460E462A48102100F041
:10041C0067FC2948214600F0DDFF4FF0E022002365
:10042C0007209361136943F0010313611369D90326
:10043C00FCD50138FAD113691F4823F0010313616D
:10044C0000F0CAFF1C4D741D02211B4801F020F85E
:10045C000028F9D00021284600F0BCFF01211648E5
:10046C0001F016F80028F9D0284600F0B5FF04F882
:10047C00010DB442E8D1104D8021284601F008F856
:10048C0004460028F8D110210A4800F027FC4FF050
:10049C00E02231219461136943F001031361136964
:1004AC00DB03FCD50139FAD1136923F00103136185
:1004BC0070BD00BF0008014000300140102110B594
:1004CC00154800F00DFCB021144800F083FF4FF0EC
:1004DC00E022002309219361136943F001031361A6
:1004EC001369DB03FCD50139FAD113690B4823F0EE
:1004FC000103136100F070FF084C8021204600F0CE
:10050C00C7FF0028F9D1BDE8104000F18040102150
:10051C0000F5843000F0E2BB0008014000300140DF
:10052C0010B5074C204600F057FF23895B0600D41A
:10053C0010BD6621BDE81040024800F095BD00BF1B
:10054C0000300140004400404FF0E023092100221C
:10055C0059619A61704700BF4FF0E022002393610C
:10056C001369411E43F001030029136104DD136973
:10057C00DB03FCD50139FAD14FF0E022136923F0EB
:10058C0001031361704700BF4FF47A714FF0E02202
:10059C00002300FB01F193611369013943F001035E
:1005AC000029136104DD1369DB03FCD50139FAD191
:1005BC004FF0E022136923F001031361704700BF71
:1005CC0041F603032DE9F0418AB0ADF80A30ADF8DD
:1005DC001630ADF81E302023ADF814304023ADF8A2
:1005EC0018308023012441F202014FF4904241F271
:1005FC00034C1025082604204FF002084FF4005736
:10060C00ADF81C304FF42053ADF80610ADF82610A1
:10061C002146ADF812C0ADF80E20ADF81A20ADF899
:10062C002230ADF80800ADF80C60ADF82040ADF804
:10063C000480ADF81050ADF8247000F0E3F92146B9
:10064C00304600F0DFF92146284600F0DBF9214660
:10065C0020461C4C00F0D6F9204601A900F0C0FA47
:10066C000DEB0601204600F0BBFA204603A900F072
:10067C00B7FA20460DEB050100F0B2FA204605A9A9
:10068C0000F0AEFA204606A900F0AAFA0E4E20465B
:10069C0007A900F0A5FA08A90C4800F0A1FA304609
:1006AC0009A900F09DFA4146204600F017FB2946A7
:1006BC00204600F013FB3946304600F00FFB0AB021
:1006CC00BDE8F0810008014000100140000C014021
:1006DC0030B5282500234FF4827E4FF4007C07228E
:1006EC0087B0ADF810500825174C01214FF48050FD
:1006FC00ADF806E0ADF80EC0ADF80430ADF808303A
:10070C00ADF80A30ADF80C30ADF81230ADF814205D
:10071C0000F078F9204601A900F092FD2046012254
:10072C00502100F03DFE094B01225D602046032163
:10073C0000F046FE2046012100F062FE0121204619
:10074C0000F012FE07B030BD0030014000E100E0C7
:10075C0030B500234FF440224FF416550A4C85B0A7
:10076C0001214FF40030CDE900530292ADF80C306A
:10077C0000F054F92046694600F084FB0121204624
:10078C0000F000FC05B030BD004400404FF41F00E9
:10079C000C4B0D4A196841F00101196059680A4067
:1007AC005A601A6822F0847222F480321A601A6835
:1007BC0022F480221A605A6822F4FE025A60986071
:1007CC00704700BF001002400000FFF80C4BB0F562
:1007DC00803F1A6822F480321A601A6822F4802250
:1007EC001A6008D0B0F5802F04D11A6842F4A02208
:1007FC001A60704770471A6842F480321A6070476A
:10080C0000100240002382B00949019300E04AB96C
:10081C000A68019B02F4003201330193019BB3F58A
:10082C00A06FF4D1024B1868C0F3404002B070477F
:10083C0000100240034A136823F0F80343EAC00394
:10084C001360704700100240014B1860704700BFE6
:10085C0000004242034A536823F47C130B430343C6
:10086C005360704700100240014B1866704700BF80
:10087C0000004242034A536823F0030303435360CE
:10088C00704700BF00100240024B586800F00C008B
:10089C00704700BF00100240034A536823F0F00376
:1008AC0003435360704700BF00100240034A536873
:1008BC0023F4E06303435360704700BF0010024011
:1008CC00034A536823F4605343EAC00353607047F0
:1008DC0000100240044A537A11B118435072704709
:1008EC0023EA00005072704700100240014BC3F81D
:1008FC00D800704700004242034A536823F4404337
:10090C0003435360704700BF001002400022084BA5
:10091C00012883F8202083F8202006D0042803D156
:10092C00052283F820207047704783F82000704719
:10093C0000100240014BC3F8800470470000424293
:10094C00024A136A03431362704700BF001002404F
:10095C00014BC3F83C047047000042421F4A10B4DC
:10096C00536803F00C03082B22D01D4A1346026077
:10097C001A491C4A4C68C4F30314145DE3404360E9
:10098C004C68C4F30224145D23FA04F484604C68AC
:10099C00C4F3C22C12F80C40E340C360496810BC8D
:1009AC00C1F381310A44127CB3FBF2F3036170474B
:1009BC0053685168C3F38343C90303F1020307D59A
:1009CC005268920304D4064A02FB03F30360CFE798
:1009DC00054A02FB03F30360CAE700BF00100240A4
:1009EC0000127A000C00002000093D00044A5369F3
:1009FC0011B118435061704723EA000050617047F1
:100A0C0000100240044A936911B118439061704779
:100A1C0023EA00009061704700100240044AD36939
:100A2C0011B11843D061704723EA0000D0617047C0
:100A3C0000100240044AD36811B11843D0607047CB
:100A4C0023EA0000D060704700100240044A13698A
:100A5C0011B118431061704723EA00001061704710
:100A6C0000100240014BC3F84004704700004242A2
:100A7C00014BD864704700BF00004242014BD87153
:100A8C00704700BF001002404309012B0BD0022B12
:100A9C00094B00F01F000CBF1B6A5B6A23FA00F0C5
:100AAC0000F001007047044B00F01F001B6823FA94
:100ABC0000F000F00100704700100240024A536A37
:100ACC0043F080735362704700100240034B9B68E5
:100ADC00184214BF01200020704700BF00100240D4
:100AEC00014B9872704700BF0010024008B52F4BA5
:100AFC0098421CD02E4B984223D02E4B98422AD091
:100B0C002D4B984209D02D4B98422ED02C4B98420D
:100B1C0035D02C4B98423CD008BD01212020FFF74A
:100B2C0089FFBDE8084000212020FFF783BF012189
:100B3C000420FFF77FFFBDE8084000210420FFF7E9
:100B4C0079BF01210820FFF775FFBDE8084000219F
:100B5C000820FFF76FBF01211020FFF76BFFBDE8E6
:100B6C00084000211020FFF765BF01214020FFF74E
:100B7C0061FFBDE8084000214020FFF75BBF012169
:100B8C008020FFF757FFBDE8084000218020FFF7C9
:100B9C0051BF01214FF48070FFF74CFFBDE80840B6
:100BAC0000214FF48070FFF745BF00BF00080140E3
:100BBC00000C0140001001400014014000180140DD
:100BCC00001C014000200140012108B50846FFF738
:100BDC0031FFBDE8084000210120FFF72BBF00BF0B
:100BEC002DE9F04191F803C01CF0100F18BF8B7861
:100BFC0009880CF00F0518BF1D43CBB21BB30023A3
:100C0C0001264FF00F08046802E00133082B19D0BD
:100C1C0006FA03F232EA0107F7D14FEA830E08FA1B
:100C2C000EF724EA070405FA0EFEBCF1280F4EEA73
:100C3C00040432D0BCF1480F03F1010308BF026178
:100C4C00082BE5D10460FF2925D9002301264FF09C
:100C5C000F08446802E00133082B1BD003F1080293
:100C6C0006FA02F232EA0107F5D14FEA830E08FACE
:100C7C000EF724EA070405FA0EFEBCF1280F4EEA23
:100C8C0004040CD0BCF1480F03F1010308BF02614E
:100C9C00082BE3D14460BDE8F0814261B5E74261C5
:100CAC00D9E700BF4FF6FF7240F202430280438047
:100CBC00704700BF8368194214BF012000207047A1
:100CCC00806880B2704700BFC368194214BF01200E
:100CDC0000207047C06880B2704700BF0161704748
:100CEC00416170470AB1016170474161704700BFB3
:100CFC00C160704741F48033836181618361836992
:100D0C00836970474FF6807C044A136803EA0C032E
:100D1C000B4343EA00131360704700BF000001400F
:100D2C00014BD861704700BF0000204200281A4BCD
:100D3C0000F44012B4BFDB695B68B2F5401F10B41D
:100D4C001FFA80FC1FD0C20214D50322C0F3034447
:100D5C00A24023EA020343F0706321B1420D120159
:100D6C000CFA02F213430C4A002810BCB4BFD36136
:100D7C0053607047420D12010CFA02F223EA02038F
:100D8C0043F07063E9E7044C23F07063626822F06F
:100D9C0070626260E1E700BF000001404FF00F0C91
:100DAC0001F0FC0303F1804303F5803301F00301F0
:100DBC009A6889000CFA01FC22EA0C029A609A6883
:100DCC008840104398607047014BC3F8DC007047B3
:100DDC000000204208B5264B984218D0254B98426B
:100DEC0021D0254B98422AD0244B984203D0244B37
:100DFC00984230D008BD01214FF40020FFF726FEA9
:100E0C00BDE8084000214FF40020FFF71FBE012170
:100E1C004FF48040FFF70EFEBDE8084000214FF470
:100E2C008040FFF707BE01214FF40030FFF70EFEA4
:100E3C00BDE8084000214FF40030FFF707BE012148
:100E4C004FF48020FFF702FEBDE8084000214FF46C
:100E5C008020FFF7FBBD01214FF48010FFF7F6FD5A
:100E6C00BDE8084000214FF48010FFF7EFBD00BF34
:100E7C00003801400044004000480040004C004055
:100E8C000050004030B504460D46238ACA889BB2F8
:100E9C0023F4405313438A892382A389898823F43A
:100EAC00B05323F00C031B041B0C0B43298987B094
:100EBC000B43698901A80B439BB2A381A38A9BB204
:100ECC0023F440731343A382FFF748FDDDE903329B
:100EDC00184919488C4208BF1346A28903EB8303B7
:100EEC0012F4004F2A6803EB830314BF52009200E4
:100EFC00B3FBF2F36425A0FB0321490905FB113375
:100F0C000A01A18909040AD41B013233A0FB031383
:100F1C00C3F3431313439BB2238107B030BDDB00F3
:100F2C003233A0FB0313C3F3421313439BB223814D
:100F3C0007B030BD003801401F85EB5100234FF442
:100F4C0016514FF44022C0E9001382608381704730
:100F5C00B1F802C00B88028A43EA0C03B1F804C052
:100F6C00C98892B243EA0C030B4322F47062134318
:100F7C009BB20382704700BF0023038043808380B1
:100F8C00C3807047838921B19BB243F400538381A2
:100F9C00704723F400531B041B0C8381704700BF64
:100FAC00012301F01F0CC1F34211012903FA0CF3C8
:100FBC000DD002290CBF103014301AB10268134343
:100FCC0003607047026822EA0303036070470C3029
:100FDC00F3E700BF838A9BB212B119438182704739
:100FEC0023EA010181827047038A23F00F031B045B
:100FFC001B0C0382038A9BB20B430382704700BF16
:10100C00838923F400631B041B0C838183899BB2AB
:10101C000B438381704700BF838921B19BB243F09E
:10102C0002038381704723F002031B041B0C838192
:10103C00704700BF038A23F020031B041B0C0382A0
:10104C00038A9BB20B430382704700BF038A21B112
:10105C009BB243F480430382704723F480431B0408
:10106C001B0C0382704700BFC1F3080181807047DD
:10107C008088C0F30800704783899BB243F001035A
:10108C0083817047028BD2B20283038B9BB243EAFB
:10109C0001230383704700BF028B02F47F4202835B
:1010AC00038B9BB20B430383704700BF838A21B130
:1010BC009BB243F020038382704723F020031B0470
:1010CC001B0C8382704700BF838A21B19BB243F013
:1010DC0010038382704723F010031B041B0C8382C4
:1010EC00704700BF838A21B19BB243F0080383820F
:1010FC00704723F008031B041B0C8382704700BF4E
:10110C00838931B16FEA43436FEA53439BB28381C6
:10111C007047C3F30E038381704700BF838A21B1EC
:10112C009BB243F400638382704723F400631B0477
:10113C001B0C8382704700BF838A23F004031B04BB
:10114C001B0C8382838A9BB20B438382704700BF44
:10115C00838A21B19BB243F002038382704723F050
:10116C0002031B041B0C8382704700BF03881942C7
:10117C0014BF012000207047C94389B20180704719
:10118C000123C1F3421201F01F0C012A03FA0CF3E4
:10119C0013D0022A0CBF028A828A92B213400288B0
:1011AC0092B243B10123090A03FA01F10A4214BFB6
:1011BC0018460020704718467047828992B2134037
:1011CC00EDE700BF0123090A8B40DB439BB2038090
:1011DC00704700BF08B5174B984206D0164B984283
:1011EC000FD0164B984218D008BD01214FF48050F7
:1011FC00FFF720FCBDE8084000214FF48050FFF7BA
:10120C0019BC01214FF48040FFF720FCBDE80840D9
:10121C0000214FF48040FFF719BC01214FF400402E
:10122C00FFF714FCBDE8084000214FF40040FFF725
:10123C000DBC00BF0030014000380040003C0040B5
:10124C00B1F802C00B888A8843EA0C03B1F806C0D7
:10125C0013430A8943EA0C0300B5B1F80AE0B1F86C
:10126C000CC0134343EA0E03028843EA0C03B1F8A3
:10127C000EC002F4415243EA0C0313439BB20380A9
:10128C00838B0A8A23F400631B041B0C8383028266
:10129C005DF804FBF0B50224828B8B6822F47B6230
:1012AC0022F00F021204120C82830484848B022B12
:1012BC0006460D4687B0A4B23DD08B8801A8002B02
:1012CC000CBF01270227FFF749FBEA88019BB2F507
:1012DC00007F26D07F01B3FBF7F3A96803EB8303F0
:1012EC005B00B3FBF1F305339BB21449A1FB031371
:1012FC001909881EFD28C3F3C0038CBF022341EAE1
:10130C00032313432A8833846B88A988134323430C
:10131C00AA890B4313439BB243F40063B38307B016
:10132C00F0BD1B0AA96803EB83035B00B3FBF1F36D
:10133C0005339BB2D9E7CA88E3E700BFCDCCCCCC50
:10134C0000230722038043808380C3800381438171
:10135C008381C3810282704700230222C0E90033DB
:10136C0082608381704700BF038821B19BB243F038
:10137C0040030380704723F040031B041B0C0380C5
:10138C00704700BF838B21B19BB243F4806383838E
:10139C00704723F480631B041B0C8383704700BFCE
:1013AC00012309098B409BB222B1828892B213436C
:1013BC0083807047828892B222EA0303838070474D
:1013CC0083889BB212B119438180704723EA0101D3
:1013DC008180704781817047808980B2704700BFDF
:1013EC004FF6FF639942038804D09BB243F4807399
:1013FC000380704723F480731B041B0C038070471D
:10140C00838821B19BB243F004038380704723F09F
:10141C0004031B041B0C8380704700BF038823F458
:10142C0000631B041B0C038003889BB20B430380DB
:10143C00704700BF03889BB243F48053038070470E
:10144C00038821B19BB243F400530380704723F40B
:10145C0000531B041B0C0380704700BF012914BFF1
:10146C00008B808A80B27047008A80B2704700BFC0
:10147C00B1F5804F038805D023F480431B041B0C6B
:10148C00038070479BB243F480430380704700BFD6
:10149C000389194214BF012000207047C94389B247
:1014AC00018170470122838800891FFA83FC01F0B7
:1014BC000F0380B202FA03F3184007D0090902FAAD
:1014CC0001F11CEA010F14BF10460020704700BF49
:1014DC00012301F00F018B40DB439BB2038170476A
:1014EC000022044B04491A605A609A60DA60596110
:1014FC00704700BF00040140FFFF0F0083793BB32E
:10150C001D4B01681A6810B422EA01021A605A686D
:10151C0022EA01025A60027902F1804202F582321B
:10152C001468214311609968026821EA02019960EC
:10153C00D96821EA0201D9604179102913D001F14F
:10154C00804303F58233196810BC0A431A60704754
:10155C000379016803F1804303F582331A6822EAA8
:10156C0001021A607047996810BC11439960D968E0
:10157C000A43DA60704700BF0004014000234FF4B7
:10158C004062036082808371704700BF024A136916
:10159C0003431361704700BF00040140034B5B69B8
:1015AC00034214BF01200020704700BF000401401B
:1015BC00014B5861704700BF00040140054B0246C7
:1015CC0019685B69184003D0114214BF0120002038
:1015DC00704700BF00040140014B5861704700BFC9
:1015EC0000040140A01B000800000020640400203F
:1015FC0070040020B804002010B400204FF41F0425
:10160C00394A3A4B116883B041F0010111605168BD
:10161C000B405360136823F0847323F480331360FE
:10162C00136823F480231360536823F4FE03536080
:10163C00946000900190136843F48033136003E0CE
:10164C00009BB3F5A06F09D0136803F4003301932A
:10165C00009B01330093019B002BF1D0224B1B68A4
:10166C0013F4003318BF01230193019B012B06D007
:10167C004FF000621E4B9A6003B010BC70471D4ABD
:10168C00194B116841F010011160116821F007012C
:10169C001160116841F0020111605A685A605A6871
:1016AC005A605A6842F480625A605A6822F47C127A
:1016BC005A605A6842F4E8125A601A6842F0807212
:1016CC001A601A689201FCD55968074A21F0030187
:1016DC005960596841F002015960536803F00C03DA
:1016EC00082BFAD1C4E700BF001002400000FFF83D
:1016FC0000ED00E000200240114A536803F00C0397
:10170C00082B09D00F4B0E4A0F495268C2F3031233
:10171C008A5CD3400B61704753685168C3F38343B1
:10172C00C90303F1020306D55268920303D4054A98
:10173C0002FB03F3E7E7054A02FB03F3E3E700BF11
:10174C000010024000127A002000002000093D0029
:10175C0000B583B0FEF734FF4FF0E024FEF7B8FF7E
:10176C00FEF7F6FF002309224FF47A606261A36151
:10177C0000938DF80430FEF707FF0A201E49FEF790
:10178C0001FE0A206946FEF73DFE69460A20FEF777
:10179C00F9FD69460A20FEF735FE69460A20174E08
:1017AC00FEF7F0FD4FF400513046FFF799FA002395
:1017BC00A3612369124D43F0010323612369DA030A
:1017CC00FCD5013DFAD123694FF4005123F00103FC
:1017DC0023613046FFF782FAA5612369084A43F07A
:1017EC00010323612369DB03FCD5013AFAD1236998
:1017FC0023F001032361D5E7040000200010014011
:10180C007F841E00002103E00B4B5B5843500431D6
:10181C000A480B4B42189A42F6D30A4A02E00023BC
:10182C0042F8043B084B9A42F9D3FFF7E5FE00F06F
:10183C001FF8FFF78DFF7047A01B00080000002069
:10184C006404002070040020B8040020FEE70000AF
:10185C0008B50021044600F08BF8044B1868C36BE4
:10186C0003B19847204600F05BF900BF941B0008B9
:10187C0070B50D4E0D4D761BB61006D0002455F8E4
:10188C00043B01349847A642F9D1094E094D00F0AA
:10189C004BF9761BB61006D0002455F8043B0134E6
:1018AC009847A642F9D170BD00000000000000006E
:1018BC000000000000000000830730B548D0541E23
:1018CC00002A3FD00346CAB201E0013C3AD303F8E8
:1018DC00012B9D07F9D1032C2DD9CDB245EA052555
:1018EC000F2C45EA054536D9A4F1100222F00F0C55
:1018FC0003F1200EE6444FEA121C03F1100242E9F8
:10190C00045542E9025510327245F8D10CF101022E
:10191C0014F00C0F03EB021204F00F0C13D0ACF10B
:10192C00040323F003030433134442F8045B93428F
:10193C00FBD10CF003042CB1CAB21C4403F8012BEC
:10194C009C42FBD130BD64461346002CF4D1F9E720
:10195C0003461446BFE71A46A446E0E7024B13B110
:10196C00024800F067B87047000000004D1A0008EC
:10197C002DE9F04F83462D4B83B018680F46CDF8F8
:10198C0004B000F07DF82A4BD3F80080D8F84861F9
:10199C009EB14FF001094FF0000A7468651E0CD41B
:1019AC00013406EB84047FB1D4F80031BB420BD078
:1019BC00013D6B1CA4F10404F5D11C4B186803B059
:1019CC00BDE8F04F00F064B873682268013BAB428D
:1019DC000CBF7560C4F800A0002AE9D0D6F88801C5
:1019EC0009FA05F10142D6F804B00BD190477268A0
:1019FC005A4512D1D8F84831B342D9D01E46002EE0
:101A0C00CBD1DAE7D6F88C0101420BD10198D4F88E
:101A1C008010904772685A45ECD0D8F84861002E77
:101A2C00BBD1CAE7D4F880009047E0E760040020FF
:101A3C00941B0008002301461A46184600F02AB8E9
:101A4C0038B5084B084D5B1B9C1007D0043B1D445C
:101A5C00013C55F804399847002CF9D1BDE83840C1
:101A6C0000F068B80000000000000000704700BFE4
:101A7C00704700BF704700BF704700BF704700BF82
:101A8C00704700BF0120704701207047704700BFAE
:101A9C00704700BF2DE9F047DFF87CA00646DAF866
:101AAC00000098460F469146FFF7EAFF1B4B1B6858
:101ABC00D3F8484124B365681F2D26DC5EB96B1C36
:101ACC000235DAF80000636044F82570FFF7E0FF98
:101ADC000020BDE8F087012304EB8501C1F8889054
:101AEC00D4F88821AB401A43022EC4F88821C1F8DF
:101AFC000881E4D1D4F88C211343C4F88C31DEE78F
:101B0C0003F5A674C3F84841D5E7DAF80000FFF7EF
:101B1C00BFFF4FF0FF30DCE760040020941B00088F
:101B2C00FEE700BF00000000F8B500BFF8BC08BC21
:101B3C009E467047F8B500BFF8BC08BC9E4670477F
:101B4C003B3E0B3E103E253E333E033E063E143ECE
:101B5C000E3E0D3E243E123E273E023E183E093EEE
:101B6C000A3E00003B3E0B3E103E253E333E033EFC
:101B7C00063E143E0E3E0D3E243E123E273E023ED5
:0C1B8C00183E093E0A3E00003800002010
:081B9800B4E5FF7F010000002D
:101BA00000000000E7E7E7E7E700000000000000B2
:101BB00001020304010203040607080902040608DF
:101BC00000000000000000000102030406070809ED
:101BD00000A24A0438000020000000002403002076
:101BE0008C030020F403002000000000000000002F
:101BF00000000000000000000000000000000000E5
:101C000000000000000000000000000000000000D4
:101C100000000000000000000000000000000000C4
:101C200000000000000000000000000000000000B4
:101C300000000000000000000000000000000000A4
:101C40000000000000000000000000000000000094
:101C50000000000000000000000000000000000084
:101C60000000000000000000000000000000000074
:101C70000000000000000000000000000000000064
:101C800001000000000000000E33CDAB34126DE601
:101C9000ECDE05000B00000000000000000000006A
:101CA0000000000000000000000000000000000034
:101CB0000000000000000000000000000000000024
:101CC0000000000000000000000000000000000014
:101CD0000000000000000000000000000000000004
:042000009C0400201C
:04200400310100089E
:042008000D010008BE
:04200C006919000846
:0400000508001811C6
:00000001FF
