:020000040800F2
:10000000FF4F002061190008A9190008A91900086C
:10001000A9190008A9190008A91900080000000082
:10002000000000000000000000000000A919000806
:10003000A919000800000000A9190008A919000862
:10004000A9190008A9190008A9190008A919000888
:10005000A9190008A919000881060008A9190008B3
:10006000A9190008A9190008A9190008A919000868
:10007000A9190008A9190008A9190008A919000858
:10008000A9190008A9190008A9190008A919000848
:10009000A9190008A9190008A9190008A919000838
:1000A000A9190008A9190008A9190008A919000828
:1000B000A9190008A9190008A9190008A919000818
:1000C000A9190008A9190008A9190008A919000808
:1000D000A9190008A9190008A9190008A9190008F8
:1000E000A9190008A9190008A919000800000000B2
:1000F0000000000000000000000000000000000000
:0C01000000000000000000005FF808F1A3
:10010C0010B5054C237833B9044B13B10448AFF345
:10011C0000800123237010BD5C040020000000004F
:10012C00801C000808B5034B1BB103490348AFF30F
:10013C00008008BD0000000060040020801C000846
:10014C00A3F5803A704700BF174B002B08BF134B29
:10015C009D46FFF7F5FF00218B460F461348144AC6
:10016C00121A01F051FC0E4B002B00D098470D4B8E
:10017C00002B00D098470020002104000D000D48F2
:10018C00002802D00C4801F0FDFC01F019FC200005
:10019C00290001F08DFB01F003FC00BF00000800FA
:1001AC000000000000000000000000005C040020C3
:1001BC00A0040020911B00089D1B000838B51021DD
:1001CC000546134800F03CFE0221124801F010FADB
:1001DC000028F9D0FF210F4801F0ACF901210D489E
:1001EC0001F006FA0028F9D00A4801F0A5F9094CEB
:1001FC0028708021204601F0FBF90028F9D1BDE8D8
:10020C00384000F18040102100F5843000F016BE1B
:10021C00000801400030014038B505460C46244822
:10022C00102100F00DFE0221224801F0E1F9002816
:10023C00F9D0204845F0200101F07CF901211D483E
:10024C0001F0D6F90028F9D01A4801F075F902210D
:10025C00184801F0CDF90028F9D02146154801F0D5
:10026C0069F90121134801F0C3F90028F9D01148AC
:10027C0001F062F90F4D8021284601F0B9F90446CE
:10028C000028F8D110210A4800F0D8FD4FF0E022E8
:10029C0013219461136943F0010313611369DB03A8
:1002AC00FCD50139FAD1136923F00103136138BD70
:1002BC00000801400030014030B50023054683B0F2
:1002CC0024480C4610218DF8073000F0B9FD294662
:1002DC00214801F02FF901211F4801F089F900286C
:1002EC00F9D01D4801F028F9C3B28DF8073002216E
:1002FC00194801F07DF90028F9D00021164801F0C9
:10030C0019F90121144801F073F90028F9D01248A9
:10031C0001F012F9104D20708021284601F068F987
:10032C0004460028F8D110210A4800F087FD4FF050
:10033C00E02213219461136943F0010313611369E3
:10034C00DB03FCD50139FAD1136923F001031361E6
:10035C0003B030BD0008014000300140002370B5EF
:10036C0016460C4682B00DF106018DF806308DF85C
:10037C0007300546FFF7A0FF4FF0E02200219DF863
:10038C000630012E0CBF2343A34309248DF80630FD
:10039C009161136943F0010313611369D903FCD50F
:1003AC00013CFAD11369102123F001032B4813618E
:1003BC0000F046FD02212A4801F01AF90028F9D074
:1003CC00274845F0200101F0B5F8254801F0B4F8B4
:1003DC00C3B28DF807300121214801F009F900283A
:1003EC00F9D01F4801F0A8F8C3B28DF807300221EC
:1003FC001B4801F0FDF80028F9D09DF806101848AC
:10040C0001F098F80121164801F0F2F80028F9D013
:10041C00134801F091F8124DC3B28DF807308021CA
:10042C00284601F0E5F804460028F8D110210B48C5
:10043C0000F004FD4FF0E02213219461136943F0A6
:10044C00010313611369DB03FCD50139FAD113697C
:10045C0023F00103136102B070BD00BF000801401E
:10046C000030014070B504460E462748102100F0BC
:10047C00E7FC0221254801F0BBF80028F9D02348FD
:10048C0044F0200101F056F80121204801F0B0F8A9
:10049C000028F9D01D4801F04FF81C4D741D0221A5
:1004AC001A4801F0A5F80028F9D0284614F8011DC7
:1004BC0001F040F80121154801F09AF80028F9D014
:1004CC00284601F039F8B442E9D1104D8021284674
:1004DC0001F08EF804460028F8D110210A4800F0EB
:1004EC00ADFC4FF0E02213219461136943F001033A
:1004FC0013611369DB03FCD50139FAD1136923F0BD
:10050C000103136170BD00BF0008014000300140C1
:10051C0070B504460E462748102100F091FC0221CC
:10052C00254801F065F80028F9D02146224801F051
:10053C0001F80121204801F05BF80028F9D01E4891
:10054C0000F0FAFF1C4D741D02211B4801F050F8FD
:10055C000028F9D00021284600F0ECFF01211648B4
:10056C0001F046F80028F9D0284600F0E5FF04F821
:10057C00010DB442E8D1104D8021284601F038F825
:10058C0004460028F8D110210A4800F057FC4FF01F
:10059C00E02213219461136943F001031361136981
:1005AC00DB03FCD50139FAD1136923F00103136184
:1005BC0070BD00BF0008014000300140F8B5054691
:1005CC000F462A4810212A4C00F03AFC0221204602
:1005DC0001F00EF80028F9D0B021254800F0AAFF50
:1005EC00234C0121204601F003F80028F9D02048C3
:1005FC0000F0A2FFE7B16E1E7B1E3E44DBB21C4C2A
:10060C003D44F61A0221204600F0F2FF0028F9D0F2
:10061C00204615F8011D00F08DFF0121204600F049
:10062C00E7FF0028F9D0204600F086FFB542E9D15B
:10063C000F4D8021284600F0DBFF04460028F8D13E
:10064C0010210A4800F0FAFB4FF0E02213219461CC
:10065C00136943F0010313611369DB03FCD5013902
:10066C00FAD1136923F001031361F8BD00080140AE
:10067C0000300140002300B583B00DF107008DF868
:10068C000730FFF79BFD03B05DF804FB4FF0E02350
:10069C000921002259619A61704700BF4FF0E02296
:1006AC00002393611369411E43F001030029136178
:1006BC0004DD1369DB03FCD50139FAD14FF0E022DC
:1006CC00136923F001031361704700BF4FF47A7173
:1006DC004FF0E022002300FB01F193611369013913
:1006EC0043F001030029136104DD1369DB03FCD51E
:1006FC000139FAD14FF0E022136923F001031361A1
:10070C00704700BF41F603032DE9F0438BB0ADF801
:10071C000630ADF81230ADF81A302023ADF8103099
:10072C004023ADF81430802341F202014FF4904283
:10073C0002251027042008244FF40059ADF8183076
:10074C0041F2034642F60303ADF80210ADF8261051
:10075C000121ADF80A20ADF81620ADF81E30ADF829
:10076C000E60ADF80400ADF80840ADF80050ADF8DF
:10077C000C70ADF81C50ADF8249000F0F3F9204645
:10078C00012100F0EFF93846012100F0EBF90121CD
:10079C00234C084600F0E6F92046694600F0D0FAF2
:1007AC00204601A900F0CCFA204602A900F0C8FAB4
:1007BC00204603A900F0C4FA20460DEB070100F017
:1007CC00BFFA184E204605A900F0BAFA204606A931
:1007DC0000F0B6FADFF85080304607A900F0B0FA06
:1007EC00304608A900F0ACFA404609A900F0A8FA76
:1007FC000021012000F082FB2946204600F01EFB60
:10080C003946204600F01AFB2946304600F016FB0C
:10081C004946404600F012FB0BB0BDE8F08300BF28
:10082C0000080140000C01400010014001234FF46E
:10083C00006200B583B068460093ADF804208DF8D3
:10084C00063000F00BFF03B05DF804FB30B500235D
:10085C004FF4007E4FF0280C07224FF48275134C96
:10086C0087B001214FF48050ADF80430ADF80EE0A4
:10087C00ADF810C0ADF80830ADF80A30ADF80C305A
:10088C00ADF81230ADF81420ADF8065000F06AF94E
:10089C00204601A900F084FD2046012100F060FEF5
:1008AC000121204600F010FE07B030BD00300140A1
:1008BC0030B500234FF440224FF416550A4C85B046
:1008CC0001214FF40030CDE900530292ADF80C3009
:1008DC0000F054F92046694600F084FB01212046C3
:1008EC0000F000FC05B030BD004400404FF41F0088
:1008FC000C4B0D4A196841F00101196059680A4006
:10090C005A601A6822F0847222F480321A601A68D3
:10091C0022F480221A605A6822F4FE025A6098600F
:10092C00704700BF001002400000FFF80C4BB0F500
:10093C00803F1A6822F480321A601A6822F48022EE
:10094C001A6008D0B0F5802F04D11A6842F4A022A6
:10095C001A60704770471A6842F480321A60704708
:10096C0000100240002382B00949019300E04AB90B
:10097C000A68019B02F4003201330193019BB3F529
:10098C00A06FF4D1024B1868C0F3404002B070471E
:10099C0000100240034A136823F0F80343EAC00333
:1009AC001360704700100240014B1860704700BF85
:1009BC0000004242034A536823F47C130B43034365
:1009CC005360704700100240014B1866704700BF1F
:1009DC0000004242034A536823F00303034353606D
:1009EC00704700BF00100240024B586800F00C002A
:1009FC00704700BF00100240034A536823F0F00315
:100A0C0003435360704700BF00100240034A536811
:100A1C0023F4E06303435360704700BF00100240AF
:100A2C00034A536823F4605343EAC003536070478E
:100A3C0000100240044A537A11B1184350727047A7
:100A4C0023EA00005072704700100240014BC3F8BB
:100A5C00D800704700004242034A536823F44043D5
:100A6C0003435360704700BF001002400022084B44
:100A7C00012883F8202083F8202006D0042803D1F5
:100A8C00052283F820207047704783F820007047B8
:100A9C0000100240014BC3F8800470470000424232
:100AAC00024A136A03431362704700BF00100240EE
:100ABC00014BC3F83C047047000042421F4A10B47B
:100ACC00536803F00C03082B22D01D4A1346026016
:100ADC001A491C4A4C68C4F30314145DE340436088
:100AEC004C68C4F30224145D23FA04F484604C684B
:100AFC00C4F3C22C12F80C40E340C360496810BC2C
:100B0C00C1F381310A44127CB3FBF2F303617047E9
:100B1C0053685168C3F38343C90303F1020307D538
:100B2C005268920304D4064A02FB03F30360CFE736
:100B3C00054A02FB03F30360CAE700BF0010024042
:100B4C0000127A000400002000093D00044A536999
:100B5C0011B118435061704723EA0000506170478F
:100B6C0000100240044A936911B118439061704718
:100B7C0023EA00009061704700100240044AD369D8
:100B8C0011B11843D061704723EA0000D06170475F
:100B9C0000100240044AD36811B11843D06070476A
:100BAC0023EA0000D060704700100240044A136929
:100BBC0011B118431061704723EA000010617047AF
:100BCC0000100240014BC3F8400470470000424241
:100BDC00014BD864704700BF00004242014BD871F2
:100BEC00704700BF001002404309012B0BD0022BB1
:100BFC00094B00F01F000CBF1B6A5B6A23FA00F064
:100C0C0000F001007047044B00F01F001B6823FA32
:100C1C0000F000F00100704700100240024A536AD5
:100C2C0043F080735362704700100240034B9B6883
:100C3C00184214BF01200020704700BF0010024072
:100C4C00014B9872704700BF0010024008B52F4B43
:100C5C0098421CD02E4B984223D02E4B98422AD02F
:100C6C002D4B984209D02D4B98422ED02C4B9842AC
:100C7C0035D02C4B98423CD008BD01212020FFF7E9
:100C8C0089FFBDE8084000212020FFF783BF012128
:100C9C000420FFF77FFFBDE8084000210420FFF788
:100CAC0079BF01210820FFF775FFBDE8084000213E
:100CBC000820FFF76FBF01211020FFF76BFFBDE885
:100CCC00084000211020FFF765BF01214020FFF7ED
:100CDC0061FFBDE8084000214020FFF75BBF012108
:100CEC008020FFF757FFBDE8084000218020FFF768
:100CFC0051BF01214FF48070FFF74CFFBDE8084055
:100D0C0000214FF48070FFF745BF00BF0008014081
:100D1C00000C01400010014000140140001801407B
:100D2C00001C014000200140012108B50846FFF7D6
:100D3C0031FFBDE8084000210120FFF72BBF00BFA9
:100D4C002DE9F04191F803C01CF0100F18BF8B78FF
:100D5C0009880CF00F0518BF1D43CBB21BB3002341
:100D6C0001264FF00F08046802E00133082B19D05C
:100D7C0006FA03F232EA0107F7D14FEA830E08FABA
:100D8C000EF724EA070405FA0EFEBCF1280F4EEA12
:100D9C00040432D0BCF1480F03F1010308BF026117
:100DAC00082BE5D10460FF2925D9002301264FF03B
:100DBC000F08446802E00133082B1BD003F1080232
:100DCC0006FA02F232EA0107F5D14FEA830E08FA6D
:100DDC000EF724EA070405FA0EFEBCF1280F4EEAC2
:100DEC0004040CD0BCF1480F03F1010308BF0261ED
:100DFC00082BE3D14460BDE8F0814261B5E7426164
:100E0C00D9E700BF4FF6FF7240F2024302804380E5
:100E1C00704700BF8368194214BF0120002070473F
:100E2C00806880B2704700BFC368194214BF0120AC
:100E3C0000207047C06880B2704700BF01617047E6
:100E4C00416170470AB1016170474161704700BF51
:100E5C00C160704741F48033836181618361836930
:100E6C00836970474FF6807C044A136803EA0C03CD
:100E7C000B4343EA00131360704700BF00000140AE
:100E8C00014BD861704700BF0000204200281A4B6C
:100E9C0000F44012B4BFDB695B68B2F5401F10B4BC
:100EAC001FFA80FC1FD0C20214D50322C0F30344E6
:100EBC00A24023EA020343F0706321B1420D1201F8
:100ECC000CFA02F213430C4A002810BCB4BFD361D5
:100EDC0053607047420D12010CFA02F223EA02032E
:100EEC0043F07063E9E7044C23F07063626822F00E
:100EFC0070626260E1E700BF000001404FF00F0C30
:100F0C0001F0FC0303F1804303F5803301F003018E
:100F1C009A6889000CFA01FC22EA0C029A609A6821
:100F2C008840104398607047014BC3F8DC00704751
:100F3C000000204208B5264B984218D0254B984209
:100F4C0021D0254B98422AD0244B984203D0244BD5
:100F5C00984230D008BD01214FF40020FFF726FE47
:100F6C00BDE8084000214FF40020FFF71FBE01210F
:100F7C004FF48040FFF70EFEBDE8084000214FF40F
:100F8C008040FFF707BE01214FF40030FFF70EFE43
:100F9C00BDE8084000214FF40030FFF707BE0121E7
:100FAC004FF48020FFF702FEBDE8084000214FF40B
:100FBC008020FFF7FBBD01214FF48010FFF7F6FDF9
:100FCC00BDE8084000214FF48010FFF7EFBD00BFD3
:100FDC00003801400044004000480040004C0040F4
:100FEC000050004030B504460D46238ACA889BB297
:100FFC0023F4405313438A892382A389898823F4D9
:10100C00B05323F00C031B041B0C0B43298987B032
:10101C000B43698901A80B439BB2A381A38A9BB2A2
:10102C0023F440731343A382FFF748FDDDE9033239
:10103C00184919488C4208BF1346A28903EB830355
:10104C0012F4004F2A6803EB830314BF5200920082
:10105C00B3FBF2F36425A0FB0321490905FB113313
:10106C000A01A18909040AD41B013233A0FB031322
:10107C00C3F3431313439BB2238107B030BDDB0092
:10108C003233A0FB0313C3F3421313439BB22381EC
:10109C0007B030BD003801401F85EB5100234FF4E1
:1010AC0016514FF44022C0E90013826083817047CF
:1010BC00B1F802C00B88028A43EA0C03B1F804C0F1
:1010CC00C98892B243EA0C030B4322F470621343B7
:1010DC009BB20382704700BF002303804380838050
:1010EC00C3807047838921B19BB243F40053838141
:1010FC00704723F400531B041B0C8381704700BF03
:10110C00012301F01F0CC1F34211012903FA0CF366
:10111C000DD002290CBF103014301AB102681343E1
:10112C0003607047026822EA0303036070470C30C7
:10113C00F3E700BF838A9BB212B1194381827047D7
:10114C0023EA010181827047038A23F00F031B04F9
:10115C001B0C0382038A9BB20B430382704700BFB4
:10116C00838923F400631B041B0C838183899BB24A
:10117C000B438381704700BF838921B19BB243F03D
:10118C0002038381704723F002031B041B0C838131
:10119C00704700BF038A23F020031B041B0C03823F
:1011AC00038A9BB20B430382704700BF038A21B1B1
:1011BC009BB243F480430382704723F480431B04A7
:1011CC001B0C0382704700BFC1F30801818070477C
:1011DC008088C0F30800704783899BB243F00103F9
:1011EC0083817047028BD2B20283038B9BB243EA9A
:1011FC0001230383704700BF028B02F47F420283FA
:10120C00038B9BB20B430383704700BF838A21B1CE
:10121C009BB243F020038382704723F020031B040E
:10122C001B0C8382704700BF838A21B19BB243F0B1
:10123C0010038382704723F010031B041B0C838262
:10124C00704700BF838A21B19BB243F008038382AD
:10125C00704723F008031B041B0C8382704700BFEC
:10126C00838931B16FEA43436FEA53439BB2838165
:10127C007047C3F30E038381704700BF838A21B18B
:10128C009BB243F400638382704723F400631B0416
:10129C001B0C8382704700BF838A23F004031B045A
:1012AC001B0C8382838A9BB20B438382704700BFE3
:1012BC00838A21B19BB243F002038382704723F0EF
:1012CC0002031B041B0C8382704700BF0388194266
:1012DC0014BF012000207047C94389B201807047B8
:1012EC000123C1F3421201F01F0C012A03FA0CF383
:1012FC0013D0022A0CBF028A828A92B2134002884F
:10130C0092B243B10123090A03FA01F10A4214BF54
:10131C0018460020704718467047828992B21340D5
:10132C00EDE700BF0123090A8B40DB439BB203802E
:10133C00704700BF08B5174B984206D0164B984221
:10134C000FD0164B984218D008BD01214FF4805095
:10135C00FFF720FCBDE8084000214FF48050FFF758
:10136C0019BC01214FF48040FFF720FCBDE8084078
:10137C0000214FF48040FFF719BC01214FF40040CD
:10138C00FFF714FCBDE8084000214FF40040FFF7C4
:10139C000DBC00BF0030014000380040003C004054
:1013AC00B1F802C00B888A8843EA0C03B1F806C076
:1013BC0013430A8943EA0C0300B5B1F80AE0B1F80B
:1013CC000CC0134343EA0E03028843EA0C03B1F842
:1013DC000EC002F4415243EA0C0313439BB2038048
:1013EC00838B0A8A23F400631B041B0C8383028205
:1013FC005DF804FBF0B50224828B8B6822F47B62CF
:10140C0022F00F021204120C82830484848B022BB0
:10141C0006460D4687B0A4B23DD08B8801A8002BA0
:10142C000CBF01270227FFF749FBEA88019BB2F5A5
:10143C00007F26D07F01B3FBF7F3A96803EB83038E
:10144C005B00B3FBF1F305339BB21449A1FB03130F
:10145C001909881EFD28C3F3C0038CBF022341EA7F
:10146C00032313432A8833846B88A98813432343AB
:10147C00AA890B4313439BB243F40063B38307B0B5
:10148C00F0BD1B0AA96803EB83035B00B3FBF1F30C
:10149C0005339BB2D9E7CA88E3E700BFCDCCCCCCEF
:1014AC0000230722038043808380C3800381438110
:1014BC008381C3810282704700230222C0E900337A
:1014CC0082608381704700BF038821B19BB243F0D7
:1014DC0040030380704723F040031B041B0C038064
:1014EC00704700BF838B21B19BB243F4806383832D
:1014FC00704723F480631B041B0C8383704700BF6D
:10150C00012309098B409BB222B1828892B213430A
:10151C0083807047828892B222EA030383807047EB
:10152C0083889BB212B119438180704723EA010171
:10153C008180704781817047808980B2704700BF7D
:10154C004FF6FF639942038804D09BB243F4807337
:10155C000380704723F480731B041B0C03807047BB
:10156C00838821B19BB243F004038380704723F03E
:10157C0004031B041B0C8380704700BF038823F4F7
:10158C0000631B041B0C038003889BB20B4303807A
:10159C00704700BF03889BB243F4805303807047AD
:1015AC00038821B19BB243F400530380704723F4AA
:1015BC0000531B041B0C0380704700BF012914BF90
:1015CC00008B808A80B27047008A80B2704700BF5F
:1015DC00B1F5804F038805D023F480431B041B0C0A
:1015EC00038070479BB243F480430380704700BF75
:1015FC000389194214BF012000207047C94389B2E6
:10160C00018170470122838800891FFA83FC01F055
:10161C000F0380B202FA03F3184007D0090902FA4B
:10162C0001F11CEA010F14BF10460020704700BFE7
:10163C00012301F00F018B40DB439BB20381704708
:10164C000022044B04491A605A609A60DA605961AE
:10165C00704700BF00040140FFFF0F0083793BB3CC
:10166C001D4B01681A6810B422EA01021A605A680C
:10167C0022EA01025A60027902F1804202F58232BA
:10168C001468214311609968026821EA020199608B
:10169C00D96821EA0201D9604179102913D001F1EE
:1016AC00804303F58233196810BC0A431A607047F3
:1016BC000379016803F1804303F582331A6822EA47
:1016CC0001021A607047996810BC11439960D9687F
:1016DC000A43DA60704700BF0004014000234FF456
:1016EC004062036082808371704700BF024A1369B5
:1016FC0003431361704700BF00040140034B5B6957
:10170C00034214BF01200020704700BF00040140B9
:10171C00014B5861704700BF00040140054B024665
:10172C0019685B69184003D0114214BF01200020D6
:10173C00704700BF00040140014B5861704700BF67
:10174C0000040140FC1C0008000000205C04002088
:10175C005C040020A004002010B400204FF41F04EF
:10176C00394A3A4B116883B041F00101116051685C
:10177C000B405360136823F0847323F4803313609D
:10178C00136823F480231360536823F4FE0353601F
:10179C00946000900190136843F48033136003E06D
:1017AC00009BB3F5A06F09D0136803F400330193C9
:1017BC00009B01330093019B002BF1D0224B1B6843
:1017CC0013F4003318BF01230193019B012B06D0A6
:1017DC004FF000621E4B9A6003B010BC70471D4A5C
:1017EC00194B116841F010011160116821F00701CB
:1017FC001160116841F0020111605A685A605A6810
:10180C005A605A6842F480625A605A6822F47C1218
:10181C005A605A6842F4E8125A601A6842F08072B0
:10182C001A601A689201FCD55968074A21F0030125
:10183C005960596841F002015960536803F00C0378
:10184C00082BFAD1C4E700BF001002400000FFF8DB
:10185C0000ED00E000200240114A536803F00C0335
:10186C00082B09D00F4B0E4A0F495268C2F30312D2
:10187C008A5CD3400B61704753685168C3F3834350
:10188C00C90303F1020306D55268920303D4054A37
:10189C0002FB03F3E7E7054A02FB03F3E3E700BFB0
:1018AC000010024000127A001800002000093D00D0
:1018BC0070B572B64022244B1A6062B6FEF722FF56
:1018CC004FF0E024FEF7C2FF0025FEF7F1FF0923DD
:1018DC004FF47A606361A561FEF7F8FE06211D20C6
:1018EC000122FEF73BFD2A4601211D20174EFEF773
:1018FC0035FD4FF400513046FFF7A2FA0023A361E7
:10190C002369134D43F0010323612369DA03FCD5EA
:10191C00013DFAD123694FF4005123F001032361F7
:10192C003046FFF78BFAA5612369094A43F001039E
:10193C0023612369DB03FCD5013AFAD1236923F037
:10194C0001032361D5E700BF00E100E00010014076
:10195C007F841E00002103E00B4B5B584350043185
:10196C000A480B4B42189A42F6D30A4A02E000236B
:10197C0042F8043B084B9A42F9D3FFF7EDFE00F016
:10198C001FF8FFF795FF7047FC1C000800000020B3
:10199C005C0400205C040020A0040020FEE7000092
:1019AC0008B50021044600F08BF8044B1868C36B93
:1019BC0003B19847204600F05BF900BFE41C000817
:1019CC0070B50D4E0D4D761BB61006D0002455F893
:1019DC00043B01349847A642F9D1094E094D00F059
:1019EC004BF9761BB61006D0002455F8043B013495
:1019FC009847A642F9D170BDF01C0008F01C0008F5
:101A0C00F81C0008F01C0008830730B548D0541EA1
:101A1C00002A3FD00346CAB201E0013C3AD303F896
:101A2C00012B9D07F9D1032C2DD9CDB245EA052503
:101A3C000F2C45EA054536D9A4F1100222F00F0C03
:101A4C0003F1200EE6444FEA121C03F1100242E9A6
:101A5C00045542E9025510327245F8D10CF10102DD
:101A6C0014F00C0F03EB021204F00F0C13D0ACF1BA
:101A7C00040323F003030433134442F8045B93423E
:101A8C00FBD10CF003042CB1CAB21C4403F8012B9B
:101A9C009C42FBD130BD64461346002CF4D1F9E7CF
:101AAC0003461446BFE71A46A446E0E7024B13B1BF
:101ABC00024800F067B87047000000009D1B00084A
:101ACC002DE9F04F83462D4B83B018680F46CDF8A7
:101ADC0004B000F07DF82A4BD3F80080D8F84861A8
:101AEC009EB14FF001094FF0000A7468651E0CD4CA
:101AFC00013406EB84047FB1D4F80031BB420BD027
:101B0C00013D6B1CA4F10404F5D11C4B186803B007
:101B1C00BDE8F04F00F064B873682268013BAB423B
:101B2C000CBF7560C4F800A0002AE9D0D6F8880173
:101B3C0009FA05F10142D6F804B00BD1904772684E
:101B4C005A4512D1D8F84831B342D9D01E46002E8E
:101B5C00CBD1DAE7D6F88C0101420BD10198D4F83D
:101B6C008010904772685A45ECD0D8F84861002E26
:101B7C00BBD1CAE7D4F880009047E0E758040020B6
:101B8C00E41C0008002301461A46184600F02AB847
:101B9C0038B5084B084D5B1B9C1007D0043B1D440B
:101BAC00013C55F804399847002CF9D1BDE8384070
:101BBC0000F068B8FC1C0008F81C0008704700BF57
:101BCC00704700BF704700BF704700BF704700BF31
:101BDC00704700BF0120704701207047704700BF5D
:101BEC00704700BF2DE9F047DFF87CA00646DAF815
:101BFC00000098460F469146FFF7EAFF1B4B1B6807
:101C0C00D3F8484124B365681F2D26DC5EB96B1CE4
:101C1C000235DAF80000636044F82570FFF7E0FF46
:101C2C000020BDE8F087012304EB8501C1F8889002
:101C3C00D4F88821AB401A43022EC4F88821C1F88D
:101C4C000881E4D1D4F88C211343C4F88C31DEE73D
:101C5C0003F5A674C3F84841D5E7DAF80000FFF79E
:101C6C00BFFF4FF0FF30DCE758040020E41C0008F5
:101C7C00FEE700BF00000000F8B500BFF8BC08BCD0
:101C8C009E467047F8B500BFF8BC08BC9E4670472E
:101C9C003B3E0B3E103E253E333E033E063E143E7D
:101CAC000E3E0D3E243E123E273E023E183E093E9D
:101CBC000A3E00003B3E0B3E103E253E333E033EAB
:101CCC00063E143E0E3E0D3E243E123E273E023E84
:0C1CDC00183E093E0A3E000030000020C7
:081CE80064E4FF7F010000002D
:081CF000B91A000831010008D7
:041CF8000D010008D2
:101CFC0000000000000000000102030401020304C4
:101D0C000607080902040608000000000000000095
:101D1C00010203040607080900A24A04300000204F
:101D2C00000000001C03002084030020EC030020B2
:101D3C000000000000000000000000000000000097
:101D4C000000000000000000000000000000000087
:101D5C000000000000000000000000000000000077
:101D6C000000000000000000000000000000000067
:101D7C000000000000000000000000000000000057
:101D8C000000000000000000000000000000000047
:101D9C000000000000000000000000000000000037
:101DAC000000000000000000000000000000000027
:101DBC000000000000000000000000000000000017
:101DCC000000000000000000010000000000000006
:101DDC000E33CDAB34126DE6ECDE05000B000000CB
:101DEC0000000000000000000000000000000000E7
:101DFC0000000000000000000000000000000000D7
:101E0C0000000000000000000000000000000000C6
:101E1C0000000000000000000000000000000000B6
:0C214C00000000000000000084040020DF
:040000050800196175
:00000001FF
