:020000040800F2
:100000000050002095130008DD130008DD130008E0
:10001000DD130008DD130008DD13000800000000F8
:10002000000000000000000000000000DD130008D8
:10003000DD13000800000000DD130008C502000801
:10004000DD130008DD130008DD130008DD130008D0
:10005000DD130008DD130008DD130008DD130008C0
:10006000DD130008DD130008DD130008DD130008B0
:10007000DD130008DD130008DD130008DD130008A0
:10008000DD130008DD130008DD130008DD13000890
:10009000DD130008DD130008DD130008DD13000880
:1000A000DD130008DD130008DD130008DD13000870
:1000B000DD130008DD130008DD130008DD13000860
:1000C000DD130008DD130008DD130008DD13000850
:1000D000DD130008DD1300083D020008DD130008F1
:1000E000DD130008DD130008DD1300080000000028
:1000F0000000000000000000000000000000000000
:0C01000000000000000000005FF808F1A3
:10010C0010B5054C237833B9044B13B10448AFF345
:10011C0000800123237010BD680400200000000043
:10012C00B416000808B5034B1BB103490348AFF3E1
:10013C00008008BD000000006C040020B41600080C
:10014C00A3F5803A704700BF174B002B08BF134B29
:10015C009D46FFF7F5FF00218B460F461348144AC6
:10016C00121A01F06BF90E4B002B00D098470D4B77
:10017C00002B00D098470020002104000D000D48F2
:10018C00002802D00C4801F017FA01F033F92000D6
:10019C00290001F0BDF801F01DF900BF00000800B6
:1001AC0000000000000000000000000068040020B7
:1001BC00B0040020C5150008D115000810B5044680
:1001CC0002210B4800F0C6FF0028F9D02146084850
:1001DC0000F062FF0121064800F0BCFF0028F9D0B6
:1001EC00034800F05BFF034BC0B2187010BD00BF9A
:1001FC00003001408404002008B502210A4800F0B8
:10020C00A9FF0028F9D00021074800F045FF012183
:10021C00054800F09FFF0028F9D0034800F03EFF8E
:10022C00024BC0B2587008BD00300140840400205D
:10023C0038B540F225511C4800F004FE002832D09D
:10024C00194C2021204600F0F3FD0028F9D0164867
:10025C0000F070FD0346154DDBB210211448AB7055
:10026C0000F0A0FBA878FFF7A9FFFFF7C5FF114C22
:10027C00E8708021204600F06DFF0028F9D100F1D4
:10028C008040102100F5843000F08AFB064C802160
:10029C00204600F0CDFD0028F9D0E9780248BDE8F1
:1002AC00384000F043BD38BD0044004084040020B9
:1002BC000008014000300140034B5A6812B15A68E3
:1002CC00013A5A60704700BF84040020024A506013
:1002DC005368002BFCD170478404002041F60303C3
:1002EC0070B588B04FF49042ADF80630ADF81230CE
:1002FC00ADF81A304FF400530820ADF80A20ADF8D1
:10030C001620ADF81C30802241F202030121ADF819
:10031C00080041F2030004261025ADF81820ADF8B2
:10032C001E3020224023ADF80E000846ADF81020F8
:10033C00ADF81430174CADF80460ADF80C5000F06B
:10034C00C3F93046012100F0BFF92846012100F025
:10035C00BBF920460DEB060100F0A4FA204602A9D9
:10036C0000F0A0FA204603A900F09CFA20460DEB01
:10037C00050100F097FA204605A900F093FA2046F3
:10038C0006A900F08FFA044807A900F08BFA08B010
:10039C0070BD00BF000801400010014030B50023C3
:1003AC004FF440224FF416550F4C85B001214FF4F9
:1003BC000030CDE90053ADF80C30029200F090F90A
:1003CC002046694600F0C0FB204640F22551012230
:1003DC0000F048FC4022054B012120465A6000F0F9
:1003EC0033FC05B030BD00BF0044004000E100E02C
:1003FC0010B500234FF0040E4FF0100C0722134CD5
:10040C0086B001214FF48050ADF80430ADF806E011
:10041C00ADF810C0ADF80830ADF80A30ADF80C30BE
:10042C00ADF80E30ADF81230ADF8142000F04CF9E8
:10043C00204601A900F066FD2046012100F042FE95
:10044C000121204600F0F2FD06B010BD0030014045
:10045C004FF41F000C4B0D4A196841F00101196053
:10046C0059680A405A601A6822F0847222F4803269
:10047C001A601A6822F480221A605A6822F4FE026A
:10048C005A609860704700BF001002400000FFF8EF
:10049C000C4BB0F5803F1A6822F480321A601A684F
:1004AC0022F480221A6008D0B0F5802F04D11A688B
:1004BC0042F4A0221A60704770471A6842F48032E6
:1004CC001A60704700100240002382B00949019362
:1004DC0000E04AB90A68019B02F40032013301932F
:1004EC00019BB3F5A06FF4D1024B1868C0F34040E8
:1004FC0002B0704700100240034A136823F0F8035F
:10050C0043EAC0031360704700100240014B1860AF
:10051C00704700BF00004242034A536823F47C1327
:10052C000B4303435360704700100240014B1866A5
:10053C00704700BF00004242034A536823F0030394
:10054C0003435360704700BF00100240024B5868D1
:10055C0000F00C00704700BF00100240034A5368C3
:10056C0023F0F00303435360704700BF00100240B8
:10057C00034A536823F4E06303435360704700BF9E
:10058C0000100240034A536823F4605343EAC0034B
:10059C005360704700100240044A537A11B118435B
:1005AC005072704723EA00005072704700100240EE
:1005BC00014BC3F8D800704700004242034A53680D
:1005CC0023F4404303435360704700BF00100240C4
:1005DC000022084B012883F8202083F8202006D025
:1005EC00042803D1052283F820207047704783F834
:1005FC002000704700100240014BC3F88004704784
:10060C0000004242024A136A03431362704700BF60
:10061C0000100240014BC3F83C04704700004242FA
:10062C001F4A10B4536803F00C03082B22D01D4A48
:10063C00134602601A491C4A4C68C4F30314145D37
:10064C00E34043604C68C4F30224145D23FA04F4C1
:10065C0084604C68C4F3C22C12F80C40E340C360B5
:10066C00496810BCC1F381310A44127CB3FBF2F32C
:10067C000361704753685168C3F38343C90303F1A3
:10068C00020307D55268920304D4064A02FB03F313
:10069C000360CFE7054A02FB03F30360CAE700BF20
:1006AC000010024000127A000400002000093D00F6
:1006BC00044A536911B118435061704723EA000092
:1006CC005061704700100240044A936911B11843FD
:1006DC009061704723EA000090617047001002405F
:1006EC00044AD36911B11843D061704723EA000062
:1006FC00D061704700100240044AD36811B118430E
:10070C00D060704723EA0000D060704700100240B0
:10071C00044A136911B118431061704723EA0000B1
:10072C001061704700100240014BC3F84004704741
:10073C0000004242014BD864704700BF00004242A7
:10074C00014BD871704700BF001002404309012BC8
:10075C000BD0022B094B00F01F000CBF1B6A5B6A0D
:10076C0023FA00F000F001007047044B00F01F006A
:10077C001B6823FA00F000F00100704700100240E3
:10078C00024A536A43F08073536270470010024070
:10079C00034B9B68184214BF01200020704700BF18
:1007AC0000100240014B9872704700BF00100240CD
:1007BC0008B52F4B98421CD02E4B984223D02E4B71
:1007CC0098422AD02D4B984209D02D4B98422ED0CE
:1007DC002C4B984235D02C4B98423CD008BD012173
:1007EC002020FFF789FFBDE8084000212020FFF7FB
:1007FC0083BF01210420FFF77FFFBDE808400021E3
:10080C000420FFF779BF01210820FFF775FFBDE831
:10081C00084000210820FFF76FBF01211020FFF7CF
:10082C006BFFBDE8084000211020FFF765BF0121D8
:10083C004020FFF761FFBDE8084000214020FFF792
:10084C005BBF01218020FFF757FFBDE80840002166
:10085C008020FFF751BF01214FF48070FFF74CFF50
:10086C00BDE8084000214FF48070FFF745BF00BF82
:10087C0000080140000C0140001001400014014030
:10088C0000180140001C014000200140012108B566
:10089C000846FFF731FFBDE8084000210120FFF7B3
:1008AC002BBF00BF2DE9F04191F803C01CF0100FD5
:1008BC0018BF8B7809880CF00F0518BF1D43CBB2FD
:1008CC001BB3002301264FF00F08046802E001332C
:1008DC00082B19D006FA03F232EA0107F7D14FEAD6
:1008EC00830E08FA0EF724EA070405FA0EFEBCF193
:1008FC00280F4EEA040432D0BCF1480F03F1010377
:10090C0008BF0261082BE5D10460FF2925D900231B
:10091C0001264FF00F08446802E00133082B1BD06E
:10092C0003F1080206FA02F232EA0107F5D14FEAA6
:10093C00830E08FA0EF724EA070405FA0EFEBCF142
:10094C00280F4EEA04040CD0BCF1480F03F101034C
:10095C0008BF0261082BE3D14460BDE8F08142611D
:10096C00B5E74261D9E700BF4FF6FF7240F2024390
:10097C0002804380704700BF8368194214BF012076
:10098C0000207047806880B2704700BFC36819426E
:10099C0014BF012000207047C06880B2704700BFB0
:1009AC0001617047416170470AB101617047416153
:1009BC00704700BFC160704741F48033836181612F
:1009CC0083618369836970474FF6807C044A13689E
:1009DC0003EA0C030B4343EA00131360704700BF98
:1009EC0000000140014BD861704700BF000020425D
:1009FC0000281A4B00F44012B4BFDB695B68B2F5F7
:100A0C00401F10B41FFA80FC1FD0C20214D5032261
:100A1C00C0F30344A24023EA020343F0706321B104
:100A2C00420D12010CFA02F213430C4A002810BCBE
:100A3C00B4BFD36153607047420D12010CFA02F23D
:100A4C0023EA020343F07063E9E7044C23F070637C
:100A5C00626822F070626260E1E700BF0000014052
:100A6C004FF00F0C01F0FC0303F1804303F58033CE
:100A7C0001F003019A6889000CFA01FC22EA0C02CD
:100A8C009A609A688840104398607047014BC3F88D
:100A9C00DC0070470000204208B5264B984218D065
:100AAC00254B984221D0254B98422AD0244B984272
:100ABC0003D0244B984230D008BD01214FF40020C4
:100ACC00FFF726FEBDE8084000214FF40020FFF799
:100ADC001FBE01214FF48040FFF70EFEBDE8084019
:100AEC0000214FF48040FFF707BE01214FF4003086
:100AFC00FFF70EFEBDE8084000214FF40030FFF771
:100B0C0007BE01214FF48020FFF702FEBDE808402C
:100B1C0000214FF48020FFF7FBBD01214FF4801022
:100B2C00FFF7F6FDBDE8084000214FF48010FFF7F9
:100B3C00EFBD00BF003801400044004000480040B9
:100B4C00004C00400050004030B504460D46238A4E
:100B5C00CA889BB223F4405313438A892382A38906
:100B6C00898823F4B05323F00C031B041B0C0B4398
:100B7C00298987B00B43698901A80B439BB2A381D8
:100B8C00A38A9BB223F440731343A382FFF748FD5F
:100B9C00DDE90332184919488C4208BF1346A28973
:100BAC0003EB830312F4004F2A6803EB830314BF97
:100BBC0052009200B3FBF2F36425A0FB0321490918
:100BCC0005FB11330A01A18909040AD41B01323334
:100BDC00A0FB0313C3F3431313439BB2238107B04E
:100BEC0030BDDB003233A0FB0313C3F342131343BA
:100BFC009BB2238107B030BD003801401F85EB51FB
:100C0C0000234FF416514FF44022C0E900138260C8
:100C1C0083817047B1F802C00B88028A43EA0C0347
:100C2C00B1F804C0C98892B243EA0C030B4322F416
:100C3C00706213439BB20382704700BF0023038092
:100C4C0043808380C3807047838921B19BB243F476
:100C5C0000538381704723F400531B041B0C8381C6
:100C6C00704700BF012301F01F0CC1F34211012991
:100C7C0003FA0CF30DD002290CBF103014301AB14A
:100C8C000268134303607047026822EA030303609F
:100C9C0070470C30F3E700BF838A9BB212B1194343
:100CAC008182704723EA010181827047038A23F015
:100CBC000F031B041B0C0382038A9BB20B4303829E
:100CCC00704700BF838923F400631B041B0C8381D2
:100CDC0083899BB20B438381704700BF838921B109
:100CEC009BB243F002038381704723F002031B0481
:100CFC001B0C8381704700BF038A23F020031B0465
:100D0C001B0C0382038A9BB20B430382704700BF08
:100D1C00038A21B19BB243F480430382704723F4CE
:100D2C0080431B041B0C0382704700BFC1F30801F6
:100D3C00818070478088C0F30800704783899BB21C
:100D4C0043F0010383817047028BD2B20283038B81
:100D5C009BB243EA01230383704700BF028B02F46A
:100D6C007F420283038B9BB20B430383704700BF0C
:100D7C00838A21B19BB243F020038382704723F016
:100D8C0020031B041B0C8382704700BF838A21B194
:100D9C009BB243F010038382704723F010031B04B3
:100DAC001B0C8382704700BF838A21B19BB243F036
:100DBC0008038382704723F008031B041B0C8382F7
:100DCC00704700BF838931B16FEA43436FEA5343E5
:100DDC009BB283817047C3F30E038381704700BFBE
:100DEC00838A21B19BB243F400638382704723F45E
:100DFC0000631B041B0C8382704700BF838A23F0A3
:100E0C0004031B041B0C8382838A9BB20B438382D7
:100E1C00704700BF838A21B19BB243F002038382E7
:100E2C00704723F002031B041B0C8382704700BF26
:100E3C000388194214BF012000207047C94389B2AE
:100E4C00018070470123C1F3421201F01F0C012AEB
:100E5C0003FA0CF313D0022A0CBF028A828A92B2D4
:100E6C001340028892B243B10123090A03FA01F13B
:100E7C000A4214BF184600207047184670478289F2
:100E8C0092B21340EDE700BF0123090A8B40DB430C
:100E9C009BB20380704700BF08B5174B984206D031
:100EAC00164B98420FD0164B984218D008BD012112
:100EBC004FF48050FFF720FCBDE8084000214FF4B0
:100ECC008050FFF719BC01214FF48040FFF720FC44
:100EDC00BDE8084000214FF48040FFF719BC012108
:100EEC004FF40040FFF714FCBDE8084000214FF41C
:100EFC000040FFF70DBC00BF00300140003800403F
:100F0C00003C0040B1F802C00B888A8843EA0C030D
:100F1C00B1F806C013430A8943EA0C0300B5B1F8D3
:100F2C000AE0B1F80CC0134343EA0E03028843EA0B
:100F3C000C03B1F80EC002F4415243EA0C03134304
:100F4C009BB20380838B0A8A23F400631B041B0C63
:100F5C00838302825DF804FBF0B50224828B8B68DC
:100F6C0022F47B6222F00F021204120C828304849E
:100F7C00848B022B06460D4687B0A4B23DD08B88DD
:100F8C0001A8002B0CBF01270227FFF749FBEA88B9
:100F9C00019BB2F5007F26D07F01B3FBF7F3A96864
:100FAC0003EB83035B00B3FBF1F305339BB21449F2
:100FBC00A1FB03131909881EFD28C3F3C0038CBFC2
:100FCC00022341EA032313432A8833846B88A988BC
:100FDC0013432343AA890B4313439BB243F400638B
:100FEC00B38307B0F0BD1B0AA96803EB83035B0056
:100FFC00B3FBF1F305339BB2D9E7CA88E3E700BF33
:10100C00CDCCCCCC00230722038043808380C380CB
:10101C00038143818381C3810282704700230222B2
:10102C00C0E9003382608381704700BF038821B11F
:10103C009BB243F040030380704723F040031B0432
:10104C001B0C0380704700BF838B21B19BB243F410
:10105C0080638383704723F480631B041B0C83839E
:10106C00704700BF012309098B409BB222B18288D3
:10107C0092B2134383807047828892B222EA0303B0
:10108C008380704783889BB212B11943818070476B
:10109C0023EA01018180704781817047808980B289
:1010AC00704700BF4FF6FF639942038804D09BB290
:1010BC0043F480730380704723F480731B041B0C70
:1010CC0003807047838821B19BB243F00403838073
:1010DC00704723F004031B041B0C8380704700BF74
:1010EC00038823F400631B041B0C038003889BB24E
:1010FC000B430380704700BF03889BB243F48053BB
:10110C0003807047038821B19BB243F400530380E2
:10111C00704723F400531B041B0C0380704700BF63
:10112C00012914BF008B808A80B27047008A80B27C
:10113C00704700BFB1F5804F038805D023F480437E
:10114C001B041B0C038070479BB243F48043038049
:10115C00704700BF0389194214BF0120002070475B
:10116C00C94389B2018170470122838800891FFA23
:10117C0083FC01F00F0380B202FA03F3184007D08E
:10118C00090902FA01F11CEA010F14BF10460020F4
:10119C00704700BF012301F00F018B40DB439BB272
:1011AC000381704724170008000000205C04002015
:1011BC0068040020B004002010B400204FF41F0479
:1011CC00394A3A4B116883B041F001011160516802
:1011DC000B405360136823F0847323F48033136043
:1011EC00136823F480231360536823F4FE035360C5
:1011FC00946000900190136843F48033136003E013
:10120C00009BB3F5A06F09D0136803F4003301936E
:10121C00009B01330093019B002BF1D0224B1B68E8
:10122C0013F4003318BF01230193019B012B06D04B
:10123C004FF000621E4B9A6003B010BC70471D4A01
:10124C00194B116841F010011160116821F0070170
:10125C001160116841F0020111605A685A605A68B5
:10126C005A605A6842F480625A605A6822F47C12BE
:10127C005A605A6842F4E8125A601A6842F0807256
:10128C001A601A689201FCD55968074A21F00301CB
:10129C005960596841F002015960536803F00C031E
:1012AC00082BFAD1C4E700BF001002400000FFF881
:1012BC0000ED00E000200240114A536803F00C03DB
:1012CC00082B09D00F4B0E4A0F495268C2F3031278
:1012DC008A5CD3400B61704753685168C3F38343F6
:1012EC00C90303F1020306D55268920303D4054ADD
:1012FC0002FB03F3E7E7054A02FB03F3E3E700BF56
:10130C000010024000127A001800002000093D0075
:10131C0080B5FEF7E3FFF027FFF76AF8FFF73EF81A
:10132C004FF0E0234FF0000C0722DFF84880DFF885
:10133C0048E0C3F8148010218EF823700F48C3F8CE
:10134C0018C01A61C8260E4C0E4DFFF729FB4FF43E
:10135C0000512846FFF726FB66606368002BFCD122
:10136C004FF400512846FFF71BFB66606368002BA7
:10137C00FCD1ECE77FFC0A0000ED00E00008014026
:10138C008404002000100140002103E00B4B5B584B
:10139C00435004310A480B4B42189A42F6D30A4A7E
:1013AC0002E0002342F8043B084B9A42F9D3FFF7C2
:1013BC0003FF00F01FF8FFF7ABFF7047241700087E
:1013CC00000000205C04002068040020B004002011
:1013DC00FEE7000008B50021044600F08BF8044B32
:1013EC001868C36B03B19847204600F05BF900BF47
:1013FC001817000870B50D4E0D4D761BB61006D0A3
:10140C00002455F8043B01349847A642F9D1094E03
:10141C00094D00F04BF9761BB61006D0002455F898
:10142C00043B01349847A642F9D170BD000000007E
:10143C00000000000000000000000000830730B531
:10144C0048D0541E002A3FD00346CAB201E0013CEA
:10145C003AD303F8012B9D07F9D1032C2DD9CDB22A
:10146C0045EA05250F2C45EA054536D9A4F11002AD
:10147C0022F00F0C03F1200EE6444FEA121C03F18C
:10148C00100242E9045542E9025510327245F8D176
:10149C000CF1010214F00C0F03EB021204F00F0C10
:1014AC0013D0ACF1040323F003030433134442F8C8
:1014BC00045B9342FBD10CF003042CB1CAB21C4464
:1014CC0003F8012B9C42FBD130BD64461346002C23
:1014DC00F4D1F9E703461446BFE71A46A446E0E701
:1014EC00024B13B1024800F067B8704700000000CF
:1014FC00D11500082DE9F04F83462D4B83B01868A9
:10150C000F46CDF804B000F07DF82A4BD3F80080DC
:10151C00D8F848619EB14FF001094FF0000A746889
:10152C00651E0CD4013406EB84047FB1D4F8003171
:10153C00BB420BD0013D6B1CA4F10404F5D11C4B38
:10154C00186803B0BDE8F04F00F064B87368226807
:10155C00013BAB420CBF7560C4F800A0002AE9D077
:10156C00D6F8880109FA05F10142D6F804B00BD17E
:10157C00904772685A4512D1D8F84831B342D9D045
:10158C001E46002ECBD1DAE7D6F88C0101420BD1E6
:10159C000198D4F88010904772685A45ECD0D8F86E
:1015AC004861002EBBD1CAE7D4F880009047E0E731
:1015BC005804002018170008002301461A46184644
:1015CC0000F02AB838B5084B084D5B1B9C1007D0AF
:1015DC00043B1D44013C55F804399847002CF9D1C3
:1015EC00BDE8384000F068B80000000000000000C2
:1015FC00704700BF704700BF704700BF704700BF07
:10160C00704700BF704700BF012070470120704732
:10161C00704700BF704700BF2DE9F047DFF87CA092
:10162C000646DAF8000098460F469146FFF7EAFFA7
:10163C001B4B1B68D3F8484124B365681F2D26DC6F
:10164C005EB96B1C0235DAF80000636044F8257053
:10165C00FFF7E0FF0020BDE8F087012304EB8501D4
:10166C00C1F88890D4F88821AB401A43022EC4F8F4
:10167C008821C1F80881E4D1D4F88C211343C4F833
:10168C008C31DEE703F5A674C3F84841D5E7DAF8E8
:10169C000000FFF7BFFF4FF0FF30DCE758040020DD
:1016AC0018170008FEE700BF00000000F8B500BFE7
:1016BC00F8BC08BC9E467047F8B500BFF8BC08BC27
:0416CC009E4670477F
:1016D0003B3E0B3E103E253E333E033E063E143E4F
:1016E0000E3E0D3E243E123E273E023E183E093E6F
:1016F0000A3E00003B3E0B3E103E253E333E033E7D
:10170000063E143E0E3E0D3E243E123E273E023E55
:0C171000183E093E0A3E00003000002098
:08171C0030EAFF7F010000002C
:1017240000000000000000000102030401020304A1
:101734000607080902040608000000000000000073
:10174400010203040607080900A24A04300000202D
:10175400000000001C03002084030020EC03002090
:101764000000000000000000000000000000000075
:101774000000000000000000000000000000000065
:101784000000000000000000000000000000000055
:101794000000000000000000000000000000000045
:1017A4000000000000000000000000000000000035
:1017B4000000000000000000000000000000000025
:1017C4000000000000000000000000000000000015
:1017D4000000000000000000000000000000000005
:1017E40000000000000000000000000000000000F5
:1017F40000000000000000000100000000000000E4
:101804000E33CDAB34126DE6ECDE05000B000000A8
:1018140000000000000000000000000000000000C4
:1018240000000000000000000000000000000000B4
:1018340000000000000000000000000000000000A4
:101844000000000000000000000000000000000094
:0C1B7400000000000000000094040020AD
:041B80003101000827
:041B84000D01000847
:041B8800ED14000850
:040000050800139547
:00000001FF
